:020000040800F2
:1000000000000220DD0C0008DD0B0008E50B0008F5
:10001000ED0B0008F50B0008FD0B000800000000C8
:10002000000000000000000000000000050C0008B7
:10003000130C000800000000210C00082F0C000821
:100040002D0D00082D0D00082D0D00082D0D0008A8
:100050002D0D00082D0D00082D0D00082D0D000898
:100060002D0D00082D0D00082D0D00082D0D000888
:100070002D0D00082D0D00082D0D00082D0D000878
:100080002D0D00082D0D00082D0D000800000000AA
:100090000000000000000000000000002D0D00081E
:1000A0002D0D00082D0D00082D0D00082D0D000848
:1000B0002D0D00082D0D00082D0D00082D0D000838
:1000C0002D0D00082D0D00082D0D00082D0D000828
:1000D0002D0D00082D0D00082D0D0008000000005A
:1000E0003B0C00082D0D00082D0D0008000000003D
:1000F0000000000000000000000000002D0D0008BE
:10010000000000002D0D00082D0D00082D0D000829
:1001100000000000000000000000000000000000DF
:100120002D0D00082D0D00082D0D00082D0D0008C7
:100130002D0D00080000000000000000000000007D
:100140000000000000000000000000002D0D00086D
:100150002D0D00082D0D00082D0D00082D0D000897
:100160002D0D00082D0D000800000000000000000B
:10017000000000000000000000000000000000007F
:10018000000000002D0D000800000000000000002D
:080190002D0D00082D0D0008E3
:1001A00010B5054C237833B9044B13B10448AFF3B1
:1001B00000800123237010BD5C00002000000000BF
:1001C000E437000808B5034B1BB103490348AFF3FC
:1001D000008008BD0000000060000020E437000837
:1001E000034613F8012B002AFBD1181A0138704777
:1001F00001F0FF01102A2BDB10F0070F08D010F8D8
:10020000013B013A8B422DD010F0070F42B3F6D1DB
:10021000F0B441EA012141EA014122F007047FF0F4
:1002200000070023F0E80256083C85EA010586EA4B
:10023000010685FA47F5A3FA87F586FA47F6A5FA87
:1002400087F68EB9EED1F0BC01F0FF0102F0070293
:1002500032B110F8013B013A83EA010313B1F8D13E
:100260000020704701387047002D06BF354603381F
:10027000073815F0010F07D1013015F4807F02BF58
:10028000013015F4C03F0130F0BC0138704700BFA9
:1002900053B94AB9002908BF00281CBF4FF0FF31ED
:1002A0004FF0FF3000F088B9ADF1080C6DE904CED5
:1002B00000F006F8DDF804E0DDE9022304B0704741
:1002C0002DE9F047089D8E4604468846002B4AD10A
:1002D0008A42174662D9B2FA82F64EB1C6F12003BD
:1002E00001FA06F820FA03F3B74043EA0808B440DD
:1002F0004FEA174E1FFA87FCB8FBFEF1230C0EFBEA
:10030000118843EA084301FB0CF29A4209D9FB1811
:1003100001F1FF3080F0EA809A4240F2E780023932
:100320003B449A1AA3B2B2FBFEF00EFB102243EA42
:10033000024300FB0CFC9C4509D9FB1800F1FF327D
:1003400080F0D6809C4540F2D3803B44023840EA9E
:100350000140A3EB0C0300211DB1F3400022C5E9CD
:100360000032BDE8F0878B4205D90DB1C5E9000127
:1003700000210846F5E7B3FA83F1002946D1734519
:1003800002D3824200F20581841A6EEB030201203F
:100390009046002DE5D0C5E90048E2E7002A00F0CC
:1003A0009080B2FA82F6002E40F0A4808A1A030CE4
:1003B0004FEA174E80B2BCB20121B2FBFEFC0EFB2D
:1003C0001C2243EA024304FB0CF29A4207D9FB18B1
:1003D0000CF1FF3802D29A4200F2E080C4469B1A28
:1003E000B3FBFEF20EFB123340EA034302FB04F4BC
:1003F0009C4207D9FB1802F1FF3002D29C4200F266
:10040000CA8002461B1B42EA0C40A5E7C1F1200648
:100410008B4022FA06F71F430EFA01F420FA06F386
:100420002EFA06FE4FEA1749234300FA01F81FFA95
:1004300087FCBEFBF9F01C0C09FB10EE44EA0E44ED
:1004400000FB0CFEA64502FA01F209D93C1900F1A5
:10045000FF3A80F09C80A64540F2998002383C44E7
:10046000A4EB0E041FFA83FEB4FBF9F309FB13445B
:100470004EEA044403FB0CFCA44508D93C1903F1E3
:10048000FF3E80F08280A4457FD9023B3C4443EA92
:100490000040A4EB0C04A0FB02EC64457346E1466B
:1004A00062D35FD05DB1B8EB030264EB090404FAD8
:1004B00006F622FA01F31E43CC40C5E90064002190
:1004C0004FE7B1FBF2FC010C41EA0E4180B240EA79
:1004D00001423B4638463C46B846BE462026B1FB64
:1004E000F7F1A2EB080241EA0C4166E7014618E782
:1004F00010462CE7C6F120022EFA02F3B740B140B5
:1005000020FA02F24FEA174E0A43B3FBFEF8BCB2E0
:100510000EFB1833110C41EA034108FB04F9B0400B
:1005200089454FEA104380B23ED9791808F1FF3C63
:1005300001D289451FD8A1EB0901B1FBFEF909FBE6
:1005400004F80EFB191192B242EA0142424529D247
:10055000BA1809F1FF31C4D24245C2D2A9F1020151
:100560003A44BEE7F0459DD2BEEB02036CEB070CAC
:100570000138E14696E7A7EB09094944A8F1020CC6
:10058000B1FBFEF909FB04F8DBE773467FE7504651
:1005900066E70846FDE63B44023A33E7ACF1020C5D
:1005A0003B441CE749469CE7A1EB0901C446B1FB6B
:1005B000FEF909FB04F8C4E7704700BFB0B58AB084
:1005C00000AF0346FB80FB88B3F5005F1AD10F4BE9
:1005D00001221A700E4B07F108041D460FCD0FC4FF
:1005E00095E80F0084E80F0007F108031846FFF7AD
:1005F000F7FD03469AB207F108014FF0FF330548B3
:1006000002F094F800BF2837BD46B0BD14010020A9
:10061000FC370008CC000020B0B5A2B000AF16E057
:10062000204A3B4611465122184602F091FC3B46B7
:100630001846FFF7D5FD03469AB239464FF0FF330F
:10064000194802F073F840F6B83000F0E3FB174B9E
:100650001B78DBB2002BE3D0154B07F154041D4689
:100660000FCD0FC40FCD0FC40FCD0FC42B681A468A
:10067000228002341B0C237007F154031846FFF745
:10068000AFFD03469AB207F154014FF0FF3306481D
:1006900002F04CF8C82000F0BDFB00BF8837BD4613
:1006A000B0BD00BF1C380008CC00002014010020A1
:1006B0007038000880B58AB000AF786007F1100389
:1006C00000221A605A609A60DA601A61354B1B6A20
:1006D000344A43F400131362324B1B6A314A23F449
:1006E000001313622F4B1B6C2E4A23F40013136468
:1006F00011237B610123BB610223FB6140233B612A
:1007000007F110031946284800F0BAFC80233B612A
:1007100007F110031946244800F0B2FC00237B6265
:1007200012E000224021204800F02EFE012000F0BF
:1007300071FB012240211C4800F026FE012000F040
:1007400069FB7B6A01337B627B6A082BE9DD01224E
:100750008021154800F018FE01224021124800F0C7
:1007600013FE012000F056FB12237B6104233B6241
:10077000C0233B6107F1100319460B4800F080FCD1
:100780000023FB60074B1B6C064A43F40013136401
:10079000044B1B6C03F40013FB60FB6800BF28379D
:1007A000BD4680BD0038024000040240B0B590B0A4
:1007B00002AF44F24123BB8600F0BAFA00F00AF916
:1007C00000F0C2F800F064F800F094F83B462B4AC1
:1007D0001C4615460FCD0FC42B6823603B461846B8
:1007E000FFF7FEFC03469AB239464FF0FF33244828
:1007F00001F09CFF4FF4FA6000F00CFBFFF70CFFD8
:1008000007F1340264230093022360211D4800F0A5
:100810004BFF034687F8373097F83730002B15D158
:1008200097F834301A4697F835303846164902F0B2
:1008300039FB3B461846FFF7D3FC03469AB23946CC
:100840004FF0FF330E4801F071FF12E097F83720A8
:100850003B460E49184602F025FB3B461846FFF77B
:10086000BFFC03469AB239464FF0FF33044801F00B
:100870005DFF4FF47A7000F0CDFAC1E7A4380008AC
:10088000CC00002078000020B8380008C8380008E4
:1008900080B500AF1448FFF70DFF134B134A1A60E1
:1008A000114B134A5A60104B00229A600E4B0022E3
:1008B000DA600D4B4FF480421A610B4B00225A61F3
:1008C000094B00229A61084B0022DA61064B002294
:1008D0001A62054800F0A4FD0346002B01D000F089
:1008E000B5F800BF80BD00BF780000200054004074
:1008F000A086010080B500AF114B124A1A60104B60
:100900004FF4E1325A600E4B00229A600C4B0022E9
:10091000DA600B4B00221A61094B0C225A61084B1A
:1009200000229A61064B0022DA61054801F0AEFE12
:100930000346002B01D000F089F800BF80BD00BF46
:10094000CC0000200044004080B588B000AF0023F8
:10095000BB601E4B1B6B1D4A43F0010313631B4B13
:100960001B6B03F00103BB60BB6800237B60174B6C
:100970001B6B164A43F004031363144B1B6B03F009
:1009800004037B607B6807F10C0300221A605A6045
:100990009A60DA601A614FF40053FB604FF404135D
:1009A0003B6100237B6107F10C031946084800F006
:1009B00067FB00220021282000F02BFB282000F0FC
:1009C00044FB00BF2037BD4680BD00BF0038024059
:1009D0000008024080B592B000AF07F11803302242
:1009E0000021184602F080FA3B1D00221A605A606E
:1009F0009A60DA601A610223BB6101237B621023D3
:100A0000BB6200233B6307F11803184601F0A6F907
:100A10000346002B01D000F019F80F237B60002360
:100A2000BB600023FB6000233B6100237B613B1D17
:100A30000021184601F00AFC0346002B01D000F00B
:100A400005F800BF4837BD4680BD000080B500AF47
:100A500072B600BF4FF40051034800F0AEFCC8204E
:100A600000F0D8F900BFF5E70008024080B582B079
:100A700000AF00237B60104B5B6C0F4A43F4804354
:100A800053640D4B5B6C03F480437B607B680023F5
:100A90003B60094B1B6C084A43F080531364064BC0
:100AA0001B6C03F080533B603B68072000F0A6FA04
:100AB00000BF0837BD4680BD0038024080B58AB00F
:100AC00000AF786007F1140300221A605A609A6040
:100AD000DA601A617B681B68194A93422CD10023A3
:100AE0003B61184B1B6B174A43F002031363154B12
:100AF0001B6B03F002033B613B694FF440737B6166
:100B00001223BB610023FB6103233B6204237B624E
:100B100007F1140319460C4800F0B2FA0023FB60F9
:100B2000084B1B6C074A43F400131364054B1B6C02
:100B300003F40013FB60FB6800BF2837BD4680BD8F
:100B400000540040003802400004024080B58AB0E2
:100B500000AF786007F1140300221A605A609A60AF
:100B6000DA601A617B681B68194A93422BD1002313
:100B70003B61184B1B6C174A43F400331364154B4D
:100B80001B6C03F400333B613B690023FB60114B9A
:100B90001B6B104A43F0010313630E4B1B6B03F0F6
:100BA0000103FB60FB680C237B610223BB61002314
:100BB000FB6103233B6207237B6207F114031946A1
:100BC000054800F05DFA00BF2837BD4680BD00BF74
:100BD00000440040003802400000024080B400AFF2
:100BE00000BFFDE780B400AF00BFFDE780B400AFF9
:100BF00000BFFDE780B400AF00BFFDE780B400AFE9
:100C000000BFFDE780B400AF00BFBD465DF8047BC8
:100C1000704780B400AF00BFBD465DF8047B7047ED
:100C200080B400AF00BFBD465DF8047B704780B55F
:100C300000AF00F0CFF800BF80BD80B500AF4FF42B
:100C4000005000F0D5FB00BF80BD000080B586B02D
:100C500000AF7860144A154BD31A7B617B693B6106
:100C6000134B1B68002B02D1114B124A1A60104B18
:100C70001A687B6813443A699A4207D202F03CF939
:100C800003460C221A604FF0FF3309E0084B1B6843
:100C9000FB60074B1A687B681344054A1360FB68C6
:100CA00018461837BD4680BD000002200004000031
:100CB000180100206802002080B400AF064BD3F872
:100CC0008830054A43F47003C2F8883000BFBD463F
:100CD0005DF8047B704700BF00ED00E0DFF834D022
:100CE000FFF7EAFF0C480D490D4A002302E0D458F3
:100CF000C4500433C4188C42F9D30A4A0A4C002366
:100D000001E013600432A242FBD302F0FBF8FFF7CC
:100D10004DFD704700000220000000205C00002014
:100D20003C3900085C00002068020020FEE700005B
:100D300080B500AF0E4B1B680D4A43F4007313607F
:100D40000B4B1B680A4A43F480631360084B1B6813
:100D5000074A43F480731360032000F04FF900202A
:100D600000F008F8FFF782FE0023184680BD00BFA0
:100D7000003C024080B582B000AF7860124B1A6828
:100D8000124B1B7819464FF47A73B3FBF1F3B2FBA5
:100D9000F3F3184600F067F90346002B01D0012356
:100DA0000EE07B680F2B0AD8002279684FF0FF30E5
:100DB00000F02FF9064A7B681360002300E001234E
:100DC00018460837BD4680BD0000002008000020FE
:100DD0000400002080B400AF064B1B781A46064B77
:100DE0001B681344044A136000BFBD465DF8047BD2
:100DF000704700BF080000201C01002080B400AF35
:100E0000034B1B681846BD465DF8047B704700BF66
:100E10001C01002080B584B000AF7860FFF7EEFFC2
:100E2000B8607B68FB60FB68B3F1FF3F05D00A4BFD
:100E30001B781A46FB681344FB6000BFFFF7DEFF18
:100E40000246BB68D31AFA689A42F7D800BF00BFBF
:100E50001037BD4680BD00BF0800002080B485B0BB
:100E600000AF78607B6803F00703FB600C4BDB6826
:100E7000BB60BA684FF6FF031340BB60FB681A0201
:100E8000BB68134343F0BF6343F40033BB60044AC1
:100E9000BB68D36000BF1437BD465DF8047B704764
:100EA00000ED00E080B400AF044BDB681B0A03F0E8
:100EB00007031846BD465DF8047B704700ED00E06F
:100EC00080B483B000AF0346FB7197F90730002B65
:100ED0000BDBFB7903F01F02074997F907305B0929
:100EE000012000FA02F241F8232000BF0C37BD4672
:100EF0005DF8047B704700BF00E100E080B483B080
:100F000000AF03463960FB7197F90730002B0ADB0D
:100F10003B68DAB20C4997F907301201D2B20B44A0
:100F200083F800230AE03B68DAB20849FB7903F052
:100F30000F03043B1201D2B20B441A7600BF0C37E8
:100F4000BD465DF8047B704700E100E000ED00E085
:100F500080B489B000AFF860B9607A60FB6803F0D4
:100F60000703FB61FB69C3F10703042B28BF0423BC
:100F7000BB61FB690433062B02D9FB69033B00E02C
:100F800000237B614FF0FF32BB6902FA03F3DA43BF
:100F9000BB681A407B699A404FF0FF317B6901FAC8
:100FA00003F3D9437B680B40134318462437BD46EF
:100FB0005DF8047B7047000080B582B000AF7860B8
:100FC0007B68013BB3F1807F01D301230FE00A4A24
:100FD0007B68013B53600F214FF0FF30FFF78EFF1E
:100FE000054B00229A60044B07221A600023184622
:100FF0000837BD4680BD00BF10E000E080B582B07C
:1010000000AF78607868FFF729FF00BF0837BD465A
:1010100080BD80B586B000AF0346B9607A60FB73CF
:1010200000237B61FFF73EFF78617A68B9687869D1
:10103000FFF78EFF024697F90F3011461846FFF76B
:101040005DFF00BF1837BD4680BD80B582B000AFE0
:101050000346FB7197F907301846FFF731FF00BFD1
:101060000837BD4680BD80B582B000AF7860786833
:10107000FFF7A2FF034618460837BD4680BD0000B3
:1010800080B489B000AF7860396000237B610023B1
:101090003B610023BB610023FB6159E10122FB6935
:1010A00002FA03F37B613B681B687A6913403B617A
:1010B0003A697B699A4240F048813B685B6803F07B
:1010C0000303012B05D03B685B6803F00303022B8D
:1010D00030D17B689B68BB61FB695B00032202FA2D
:1010E00003F3DB43BA691340BB613B68DA68FB6911
:1010F0005B0002FA03F3BA691343BB617B68BA6908
:101100009A607B685B68BB610122FB6902FA03F3AA
:10111000DB43BA691340BB613B685B681B0903F0A2
:101120000102FB6902FA03F3BA691343BB617B68EE
:10113000BA695A603B685B6803F00303032B17D05E
:101140007B68DB68BB61FB695B00032202FA03F387
:10115000DB43BA691340BB613B689A68FB695B007B
:1011600002FA03F3BA691343BB617B68BA69DA60B8
:101170003B685B6803F00303022B23D1FB69DA08A9
:101180007B68083253F82230BB61FB6903F0070328
:101190009B000F2202FA03F3DB43BA691340BB61E1
:1011A0003B681A69FB6903F007039B0002FA03F32B
:1011B000BA691343BB61FB69DA087B680832B96915
:1011C00043F822107B681B68BB61FB695B0003224C
:1011D00002FA03F3DB43BA691340BB613B685B6807
:1011E00003F00302FB695B0002FA03F3BA691343DD
:1011F000BB617B68BA691A603B685B6803F4403383
:10120000002B00F0A2800023FB60574B5B6C564A1A
:1012100043F480435364544B5B6C03F48043FB60A2
:10122000FB68524AFB699B08023352F82330BB61CA
:10123000FB6903F003039B000F2202FA03F3DB4375
:10124000BA691340BB617B68494A934219D07B68F5
:10125000484A934213D07B68474A93420DD07B683B
:10126000464A934207D07B68454A934201D1042302
:1012700008E0072306E0032304E0022302E0012341
:1012800000E00023FA6902F0030292009340BA6979
:101290001343BB613549FB699B080233BA6941F8C6
:1012A0002320384B9B68BB613B69DB43BA69134021
:1012B000BB613B685B6803F48013002B03D0BA6901
:1012C0003B691343BB612F4ABB6993602D4BDB68BD
:1012D000BB613B69DB43BA691340BB613B685B6838
:1012E00003F40013002B03D0BA693B691343BB61BD
:1012F000244ABB69D360234B5B68BB613B69DB431A
:10130000BA691340BB613B685B6803F40033002B90
:1013100003D0BA693B691343BB611A4ABB69536086
:10132000184B1B68BB613B69DB43BA691340BB6167
:101330003B685B6803F48033002B03D0BA693B69D8
:101340001343BB610F4ABB691360FB690133FB6147
:10135000FB690F2B7FF6A2AE00BF00BF2437BD464E
:101360005DF8047B704700BF003802400038014040
:10137000000002400004024000080240000C02404D
:1013800000100240003C014080B483B000AF7860A0
:101390000B467B8013467B707B78002B03D07A88CA
:1013A0007B689A6103E07B881A047B689A6100BFBE
:1013B0000C37BD465DF8047B704780B485B000AF44
:1013C00078600B467B807B685B69FB607A88FB6892
:1013D00013401A04FB68D9437B880B401A437B688F
:1013E0009A6100BF1437BD465DF8047B704700006A
:1013F00080B582B000AF0346FB80084B5A69FB887A
:101400001340002B06D0054AFB885361FB88184621
:10141000FFF7D4F800BF0837BD4680BD003C01404F
:1014200080B584B000AF78607B68002B01D10123C8
:101430002BE17B6893F83D30DBB2002B06D17B6853
:10144000002283F83C207868FFF738FB7B68242271
:1014500083F83D207B681B681A687B681B6822F054
:1014600001021A607B681B681A687B681B6842F47B
:1014700000421A607B681B681A687B681B6822F44C
:1014800000421A6001F0DAF8F8607B685B68814A14
:10149000934207D8FB68804A934294BF01230023FC
:1014A000DBB206E0FB687D4A934294BF0123002330
:1014B000DBB2002B01D00123E7E0FB68784AA2FBF6
:1014C00003239B0CBB607B681B685B6823F03F01B8
:1014D0007B681B68BA680A435A607B681B681B6A92
:1014E00023F03F017B685B686A4A934202D8BB687D
:1014F000013309E0BB684FF4967202FB03F3694ABB
:10150000A2FB03239B0901337A6812680B43136221
:101510007B681B68DB6923F44F4222F0FF027B6883
:101520005B685C498B4219D8FB68591E7B685B6815
:101530005B00B1FBF3F3591C40F6FC730B40002B2E
:101540000AD0FB68591E7B685B685B00B1FBF3F354
:101550000133C3F30B0351E004234FE07B689B6826
:10156000002B11D1FB68581E7B6859680B465B0045
:101570000B44B0FBF3F30133C3F30B03002B0CBF9D
:1015800001230023DBB212E0FB68581E7B68596818
:101590000B469B000B4499000B44B0FBF3F3013363
:1015A000C3F30B03002B0CBF01230023DBB2002B82
:1015B00001D0012322E07B689B68002B0ED1FB68E1
:1015C000581E7B6859680B465B000B44B0FBF3F375
:1015D0000133C3F30B0343F400430FE0FB68581ED1
:1015E0007B6859680B469B000B4499000B44B0FB89
:1015F000F3F30133C3F30B0343F440437968096801
:101600001343CB617B681B681B6823F0C0017B68B8
:10161000DA697B681B6A1A437B681B680A431A6095
:101620007B681B689B6823F4034323F0FF037A68FD
:1016300011697A68D26811437A6812680B43936023
:101640007B681B68DB6823F0FF017B685A697B6855
:101650009B691A437B681B680A43DA607B681B68D6
:101660001A687B681B6842F001021A607B680022DE
:101670001A647B68202283F83D207B6800221A636D
:101680007B68002283F83E20002318461037BD46B1
:1016900080BD00BFA08601007F841E00FF083D00C2
:1016A00083DE1B43D34D621080B588B002AFF86073
:1016B0007A601A460B467B8113463B81FFF79EFBFF
:1016C0007861FB6893F83D30DBB2202B40F0E0807E
:1016D0007B690093192301227049F86800F064F9CE
:1016E0000346002B01D00223D3E0FB6893F83C3083
:1016F000012B01D10223CCE0FB68012283F83C20BE
:10170000FB681B681B6803F00103012B07D0FB6813
:101710001B681A68FB681B6842F001021A60FB68CC
:101720001B681A68FB681B6822F400621A60FB6879
:10173000212283F83D20FB68102283F83E20FB68BD
:1017400000221A64FB687A685A62FB683A895A85F3
:10175000FB685B8D9AB2FB681A85FB68504ADA62B7
:1017600079897B693A6AF86800F09CF80346002B97
:1017700001D001238DE000233B61FB681B685B699E
:101780003B61FB681B689B693B613B6966E07A696A
:10179000396AF86800F022FA0346002B0DD0FB6886
:1017A0001B6C042B07D1FB681B681A68FB681B685D
:1017B00042F400721A6001236BE0FB685B6A1A78DE
:1017C000FB681B681A61FB685B6A5A1CFB685A62FB
:1017D000FB685B8D9BB2013B9AB2FB685A85FB6844
:1017E0001B8D013B9AB2FB681A85FB681B685B691D
:1017F00003F00403042B1BD1FB681B8D002B17D0B7
:10180000FB685B6A1A78FB681B681A61FB685B6A95
:101810005A1CFB685A62FB685B8D9BB2013B9AB213
:10182000FB685A85FB681B8D013B9AB2FB681A85E1
:101830007A69396AF86800F019FA0346002B0DD06E
:10184000FB681B6C042B07D1FB681B681A68FB68DC
:101850001B6842F400721A6001231AE0FB681B8DBA
:10186000002B94D1FB681B681A68FB681B6842F464
:1018700000721A60FB68202283F83D20FB6800227A
:1018800083F83E20FB68002283F83C20002300E020
:10189000022318461837BD4680BD00BF0200100065
:1018A0000000FFFF80B588B002AFF8607A603B604F
:1018B0000B467B81FB68DB6A7B617B69082B06D06A
:1018C0007B69012B03D07B6913F5803F08D1FB684E
:1018D0001B681A68FB681B6842F480721A600BE090
:1018E000FB681B6B122B07D1FB681B681A68FB682F
:1018F0001B6842F480721A603B6800937B68002288
:101900004FF00111F86800F04FF80346002B0DD09E
:10191000FB681B681B6803F48073B3F5807F03D1F9
:10192000FB684FF400721A64032335E0FB681B69FF
:10193000B3F5804F08D17B89DBB21A46FB681B6880
:1019400002F0FE021A611BE07B89DB11DBB203F0BF
:101950000603DBB263F00F03DAB2FB681B681A619F
:101960003B687A680E49F86800F098F80346002B47
:1019700001D0012310E07B89DAB2FB681B681A6191
:101980003B687A680749F86800F088F80346002B3E
:1019900001D0012300E0002318461837BD4680BD62
:1019A000080001000200010080B584B000AFF860BB
:1019B000B9603B601346FB7148E03B68B3F1FF3F01
:1019C00044D0FFF71BFA0246BB69D31A3A689A4221
:1019D00002D33B68002B39D1BB681B0CDBB2012B57
:1019E0000DD1FB681B685B69DA43BB6813409BB28F
:1019F000002B0CBF01230023DBB21A460CE0FB686E
:101A00001B689B69DA43BB6813409BB2002B0CBF79
:101A100001230023DBB21A46FB799A4216D1FB68F8
:101A200000221A63FB68202283F83D20FB68002215
:101A300083F83E20FB681B6C43F02002FB681A64AD
:101A4000FB68002283F83C20012323E0BB681B0CC9
:101A5000DBB2012B0DD1FB681B685B69DA43BB6805
:101A600013409BB2002B0CBF01230023DBB21A46AC
:101A70000CE0FB681B689B69DA43BB6813409BB2B0
:101A8000002B0CBF01230023DBB21A46FB799A42DC
:101A900093D0002318461037BD4680BD80B584B072
:101AA00000AFF860B9607A603B6071E0FB681B686A
:101AB0005B6903F48063B3F5806F23D1FB681B6817
:101AC0001A68FB681B6842F400721A60FB681B68A6
:101AD0006FF480625A61FB6800221A63FB6820225F
:101AE00083F83D20FB68002283F83E20FB681B6CD6
:101AF00043F00402FB681A64FB68002283F83C2070
:101B0000012367E07B68B3F1FF3F41D0FFF776F92F
:101B100002463B68D31A7A689A4202D37B68002B4C
:101B200036D1BB681B0CDBB2012B0CD1FB681B68E8
:101B30005B69DA43BB6813409BB2002B14BF0123DF
:101B40000023DBB20BE0FB681B689B69DA43BB68D0
:101B500013409BB2002B14BF01230023DBB2002BE8
:101B600016D0FB6800221A63FB68202283F83D2010
:101B7000FB68002283F83E20FB681B6C43F02002C8
:101B8000FB681A64FB68002283F83C20012321E0F3
:101B9000BB681B0CDBB2012B0CD1FB681B685B69BB
:101BA000DA43BB6813409BB2002B14BF0123002310
:101BB000DBB20BE0FB681B689B69DA43BB68134030
:101BC0009BB2002B14BF01230023DBB2002B7FF458
:101BD0006DAF002318461037BD4680BD80B584B078
:101BE00000AFF860B9607A6034E0F86800F086F819
:101BF0000346002B01D0012334E0BB68B3F1FF3F63
:101C000028D0FFF7FBF802467B68D31ABA689A42DD
:101C100002D3BB68002B1DD1FB681B685B6903F016
:101C20008003802B16D0FB6800221A63FB682022F9
:101C300083F83D20FB68002283F83E20FB681B6C84
:101C400043F02002FB681A64FB68002283F83C2002
:101C5000012307E0FB681B685B6903F08003802BAE
:101C6000C3D1002318461037BD4680BD80B584B06F
:101C700000AFF860B9607A6034E0F86800F03EF8D0
:101C80000346002B01D0012334E0BB68B3F1FF3FD2
:101C900028D0FFF7B3F802467B68D31ABA689A4295
:101CA00002D3BB68002B1DD1FB681B685B6903F086
:101CB0000403042B16D0FB6800221A63FB68202261
:101CC00083F83D20FB68002283F83E20FB681B6CF4
:101CD00043F02002FB681A64FB68002283F83C2072
:101CE000012307E0FB681B685B6903F00403042B16
:101CF000C3D1002318461037BD4680BD80B483B0E1
:101D000000AF78607B681B685B6903F48063B3F5A0
:101D1000806F1BD17B681B686FF480625A617B689F
:101D200000221A637B68202283F83D207B68002212
:101D300083F83E207B681B6C43F004027B681A64C6
:101D40007B68002283F83C20012300E00023184632
:101D50000C37BD465DF8047B7047000080B586B047
:101D600000AF78607B68002B01D1012367E27B68BC
:101D70001B6803F00103002B75D0884B9B6803F0B0
:101D80000C03042B0CD0854B9B6803F00C03082B31
:101D900012D1824B5B6803F48003B3F5800F0BD143
:101DA0007E4B1B6803F40033002B5BD07B685B68C1
:101DB000002B57D1012342E27B685B68B3F5803F7B
:101DC00006D1764B1B68754A43F4803313601DE0DF
:101DD0007B685B68B3F5A02F0CD1704B1B686F4A12
:101DE00043F4802313606D4B1B686C4A43F48033CB
:101DF00013600BE0694B1B68684A23F4803313605F
:101E0000664B1B68654A23F4802313607B685B681C
:101E1000002B13D0FEF7F2FF386108E0FEF7EEFF6B
:101E200002463B69D31A642B01D9032307E25B4BBB
:101E30001B6803F40033002BF0D014E0FEF7DEFF44
:101E4000386108E0FEF7DAFF02463B69D31A642BDB
:101E500001D90323F3E1514B1B6803F40033002B3A
:101E6000F0D100E000BF7B681B6803F00203002B89
:101E700063D04A4B9B6803F00C03002B0BD0474BFD
:101E80009B6803F00C03082B1CD1444B5B6803F4E4
:101E90008003002B16D1414B1B6803F00203002B7B
:101EA00005D07B68DB68012B01D00123C7E13B4BE8
:101EB0001B6823F0F8027B681B69DB00374913437A
:101EC0000B603AE07B68DB68002B20D0344B0122AA
:101ED0001A60FEF793FF386108E0FEF78FFF0246B5
:101EE0003B69D31A022B01D90323A8E12B4B1B68B2
:101EF00003F00203002BF0D0284B1B6823F0F802FC
:101F00007B681B69DB00254913430B6015E0244BFC
:101F100000221A60FEF772FF386108E0FEF76EFFDC
:101F200002463B69D31A022B01D9032387E11B4BDD
:101F30001B6803F00203002BF0D17B681B6803F0E1
:101F40000803002B36D07B685B69002B16D0154B3D
:101F500001221A60FEF752FF386108E0FEF74EFFDB
:101F600002463B69D31A022B01D9032367E10B4BCD
:101F70005B6F03F00203002BF0D01BE0094B002243
:101F80001A60FEF73BFF38610EE0FEF737FF0246AE
:101F90003B69D31A022B07D9032350E100380240D2
:101FA00000004742800E4742884B5B6F03F00203FC
:101FB000002BEAD17B681B6803F00403002B00F0C0
:101FC00097800023FB75814B1B6C03F08053002B23
:101FD0000FD10023BB607D4B1B6C7C4A43F08053C8
:101FE00013647A4B1B6C03F08053BB60BB68012306
:101FF000FB75774B1B6803F48073002B18D1744B6F
:102000001B68734A43F480731360FEF7F7FE386170
:1020100008E0FEF7F3FE02463B69D31A022B01D912
:1020200003230CE16A4B1B6803F48073002BF0D090
:102030007B689B68012B06D1644B1B6F634A43F09E
:10204000010313671CE07B689B68052B0CD15F4B79
:102050001B6F5E4A43F0040313675C4B1B6F5B4AC4
:1020600043F0010313670BE0584B1B6F574A23F0F3
:1020700001031367554B1B6F544A23F00403136786
:102080007B689B68002B15D0FEF7B8FE38610AE02C
:10209000FEF7B4FE02463B69D31A41F288329342FE
:1020A00001D90323CBE0494B1B6F03F00203002B44
:1020B000EED014E0FEF7A2FE38610AE0FEF79EFEC5
:1020C00002463B69D31A41F28832934201D9032375
:1020D000B5E03E4B1B6F03F00203002BEED1FB7DFE
:1020E000012B05D1394B1B6C384A23F08053136404
:1020F0007B689B69002B00F0A180344B9B6803F048
:102100000C03082B5CD07B689B69022B41D1314BBF
:1021100000221A60FEF772FE386108E0FEF76EFEDC
:1021200002463B69D31A022B01D9032387E0274BD0
:102130001B6803F00073002BF0D17B68DA697B68C1
:102140001B6A1A437B685B6A9B011A437B689B6A24
:102150005B08013B1B041A437B68DB6A1B061B49B7
:1021600013434B601B4B01221A60FEF747FE386198
:1021700008E0FEF743FE02463B69D31A022B01D961
:1021800003235CE0114B1B6803F00073002BF0D0BD
:1021900054E0104B00221A60FEF730FE386108E070
:1021A000FEF72CFE02463B69D31A022B01D903230A
:1021B00045E0064B1B6803F00073002BF0D13DE0B7
:1021C0007B689B69012B07D1012338E0003802406E
:1021D00000700040600047421B4B5B68FB607B68FF
:1021E0009B69012B28D0FB6803F480027B68DB69C4
:1021F0009A4221D1FB6803F03F027B681B6A9A4236
:102200001AD1FA6847F6C07313407A68526A92018D
:10221000934211D1FB6803F440327B689B6A5B08F0
:10222000013B1B049A4207D1FB6803F070627B6894
:10223000DB6A1B069A4201D0012300E00023184606
:102240001837BD4680BD00BF0038024080B584B05D
:1022500000AF786039607B68002B01D10123CCE0AE
:10226000684B1B6803F007033A689A420CD9654B28
:102270003A68D2B21A70634B1B6803F007033A68DE
:102280009A4201D00123B8E07B681B6803F0020387
:10229000002B20D07B681B6803F00403002B05D0C3
:1022A000594B9B68584A43F4E05393607B681B6822
:1022B00003F00803002B05D0534B9B68524A43F4AC
:1022C00060439360504B9B6823F0F0027B689B68EF
:1022D0004D4913438B607B681B6803F00103002B9F
:1022E00044D07B685B68012B07D1474B1B6803F424
:1022F0000033002B19D101237FE07B685B68022B40
:1023000003D07B685B68032B07D13F4B1B6803F04E
:102310000073002B09D101236FE03B4B1B6803F0D6
:102320000203002B01D1012367E0374B9B6823F0A8
:1023300003027B685B68344913438B60FEF75EFDE4
:10234000F8600AE0FEF75AFD0246FB68D31A41F234
:102350008832934201D903234FE02B4B9B6803F053
:102360000C027B685B689B009A42EBD1254B1B6893
:1023700003F007033A689A420CD2224B3A68D2B271
:102380001A70204B1B6803F007033A689A4201D089
:10239000012332E07B681B6803F00403002B08D0A4
:1023A000194B9B6823F4E0527B68DB6816491343A2
:1023B0008B607B681B6803F00803002B09D0124B6D
:1023C0009B6823F460427B681B69DB000E49134362
:1023D0008B6000F021F802460B4B9B681B0903F051
:1023E0000F030A49CB5C22FA03F3094A1360094B35
:1023F0001B681846FEF7BEFC002318461037BD4682
:1024000080BD00BF003C024000380240E0380008B8
:1024100000000020040000202DE9B04F94B000AF70
:1024200000237B640023FB6400233B640023BB6424
:10243000794B9B6803F00C03082B0DD0082B00F29E
:10244000E180002B02D0042B03D0DBE0734BBB6494
:10245000DBE0734BBB64D8E06F4B5B6803F03F037A
:102460007B646D4B5B6803F48003002B63D06A4B85
:102470005B689B090022BB63FA63BB6BC3F3080371
:102480003B6300237B63D7E90C4522462B464FF084
:1024900000004FF00001590141EAD26150010246AB
:1024A0000B462146511A3961294663EB01037B61D2
:1024B0004FF000024FF00003D7E904AB59468B01FF
:1024C000514643EA916351468A015146B2EB0108F5
:1024D000594663EB01094FF000024FF000034FEA49
:1024E000C90343EA58734FEAC80290469946234607
:1024F00018EB0303BB602B4649EB0303FB604FF073
:1025000000024FF00003D7E9024529464B0221465D
:1025100043EAD15321464A02104619467B6C0022F9
:10252000BB62FA62D7E90A23FDF7B2FE02460B4608
:102530001346FB6458E0384B5B689B090022184641
:102540001146C0F308033B6200237B62D7E9088988
:1025500042464B464FF000004FF00001590141EA5E
:10256000D261500102460B464146B2EB010A494690
:1025700063EB010B4FF000024FF000034FEA8B13A7
:1025800043EA9A634FEA8A12B2EB0A0463EB0B0543
:102590004FF000024FF00003EB0043EA5473E200F7
:1025A00014461D464346E3183B604B4645EB030388
:1025B0007B604FF000024FF00003D7E90045294649
:1025C0008B02214643EA915321468A02104619465E
:1025D0007B6C0022BB61FA61D7E90623FDF758FE48
:1025E00002460B461346FB640B4B5B681B0C03F067
:1025F000030301335B003B64FA6C3B6CB2FBF3F307
:10260000BB6402E0054BBB6400BFBB6C184650378F
:10261000BD46BDE8B08F00BF003802400024F40082
:1026200000127A0080B400AF034B1B681846BD4609
:102630005DF8047B704700BF0000002080B500AF4C
:10264000FFF7F0FF0246054B9B689B0A03F0070368
:102650000349CB5C22FA03F3184680BD00380240E0
:10266000F038000880B500AFFFF7DCFF0246054BED
:102670009B685B0B03F007030349CB5C22FA03F36F
:10268000184680BD00380240F038000880B582B09E
:1026900000AF78607B68002B01D1012342E07B68AA
:1026A00093F84130DBB2002B06D17B68002283F81F
:1026B00040207868FEF74AFA7B68242283F841209C
:1026C0007B681B68DA687B681B6822F40052DA605A
:1026D000786800F073F97B681B681A697B681B686F
:1026E00022F490421A617B681B685A697B681B68F8
:1026F00022F02A025A617B681B68DA687B681B68D3
:1027000042F40052DA607B6800225A647B6820221F
:1027100083F841207B68202283F842207B680022D6
:102720005A63002318460837BD4680BD80B58AB07D
:1027300002AFF860B9603B601346FB8000237B6109
:10274000FB6893F84130DBB2202B75D1BB68002BBE
:1027500002D0FB88002B01D101236EE0FB68002230
:102760005A64FB68212283F84120FEF747FB786119
:10277000FB68FA889A84FB68FA88DA84FB689B68AD
:10278000B3F5805F08D1FB681B69002B04D10023DF
:10279000FB61BB68BB6103E0BB68FB610023BB61FD
:1027A0002EE03B6800937B6900228021F86800F0EE
:1027B00048F80346002B05D0FB68202283F841200F
:1027C00003233AE0FB69002B0BD1BB691B881A4637
:1027D000FB681B68C2F308025A60BB690233BB6125
:1027E00007E0FB691A78FB681B685A60FB690133D4
:1027F000FB61FB68DB8C9BB2013B9AB2FB68DA841D
:10280000FB68DB8C9BB2002BCBD13B6800937B69D0
:1028100000224021F86800F014F80346002B05D090
:10282000FB68202283F84120032306E0FB68202276
:1028300083F84120002300E0022318462037BD46DC
:1028400080BD80B586B000AFF860B9603B601346CC
:10285000FB713BE03B6AB3F1FF3F37D0FEF7CEFAA6
:1028600002463B68D31A3A6A9A4202D33B6A002B6B
:1028700001D103233AE0FB681B68DB6803F0040323
:10288000002B23D0BB68802B20D0BB68402B1DD0F1
:10289000FB681B681B6803F00803082B16D1002394
:1028A0007B61FB681B681B687B61FB681B685B685E
:1028B0007B617B69F86800F01DF8FB6808225A64A8
:1028C000FB68002283F8402001230FE0FB681B68AF
:1028D0001A68BB681340BA689A420CBF01230023F0
:1028E000DBB21A46FB799A42B4D000231846183757
:1028F000BD4680BD80B495B000AF78607B681B6832
:102900000C337B637B6B53E8003F3B633B6B23F4EF
:102910009073FB647B681B680C33FA6C3A64FB634E
:10292000F96B3A6C41E80023BB63BB6B002BE5D12C
:102930007B681B6814333B623B6A53E8003FFB61D2
:10294000FB6923F00103BB647B681B681433BA6C1A
:10295000FA62BB62B96AFA6A41E800237B627B6A69
:10296000002BE5D17B681B6B012B19D17B681B68A1
:102970000C33FB60FB6853E8003FBB60BB6823F08F
:1029800010037B647B681B680C337A6CBA617B61D3
:102990007969BA6941E800233B613B69002BE5D1C5
:1029A0007B68202283F842207B6800221A6300BFE4
:1029B0005437BD465DF8047B704700002DE9B04FE9
:1029C000C0B000AFC7F8F400D7F8F4301B681B693B
:1029D00023F44050D7F8F430D968D7F8F4301A68A7
:1029E00040EA01031361D7F8F4309A68D7F8F4305D
:1029F0001B691A43D7F8F4305B691A43D7F8F430EF
:102A0000DB691343C7F8F830D7F8F4301B68DB688C
:102A100023F4164121F00C01D7F8F4301A68D7F8E6
:102A2000F8300B43D360D7F8F4301B685B6923F4AC
:102A30004070D7F8F4309969D7F8F4301A6840EA52
:102A400001035361D7F8F4301A688F4B9A4205D0CE
:102A5000D7F8F4301A688D4B9A4204D1FFF702FE82
:102A6000C7F8FC0003E0FFF7E9FDC7F8FC00D7F862
:102A7000F430DB69B3F5004F40F00C81D7F8FC303F
:102A80000022C7F8E830C7F8EC20D7E93A452246DB
:102A90002B469118B9655B41FB65D7E916232146A2
:102AA00012EB0108294643EB01094FF000024FF0F9
:102AB00000034FEAC90343EA58734FEAC80290463D
:102AC0009946234618EB0303C7F8E0302B4649EB41
:102AD0000303C7F8E430D7F8F4305B680022C7F886
:102AE000D830C7F8DC20D7E936120B46DB183B6537
:102AF000134642EB03037B65D7E91423D7E938017A
:102B0000FDF7C6FB02460B46614BA3FB02235B09A4
:102B10001C01D7F8FC300022C7F8D030C7F8D42009
:102B2000D7E9348942464B469118B9645B41FB644E
:102B3000D7E91223414612EB010A494643EB010B48
:102B40004FF000024FF000034FEACB0343EA5A7301
:102B50004FEACA0292469B4643461AEB0303C7F864
:102B6000C8304B464BEB0303C7F8CC30D7F8F430F2
:102B70005B680022C7F8C030C7F8C420D7E930121C
:102B80000B46DB183B64134642EB03037B64D7E937
:102B90001023D7E93201FDF77BFB02460B461146B5
:102BA0003B4BA3FB01235B09642202FB03F3CB1A1B
:102BB000DB0003F13202364BA3FB02235B095B000F
:102BC00003F4F8731C44D7F8FC300022C7F8B8307F
:102BD000C7F8BC20D7E92E8942464B469118B96305
:102BE0005B41FB63D7E90E234146511839634946DF
:102BF0004B417B634FF000024FF00003D7E90CAB71
:102C00005946CB00514643EA51735146CA0010461B
:102C10001946034642469B18C7F8B0304B460A4651
:102C200042EB0303C7F8B430D7F8F4305B680022F6
:102C3000C7F8A830C7F8AC20D7E92A120B46DB1832
:102C4000BB62134642EB0303FB62D7E90A23D7E9D1
:102C50002C01FDF71DFB02460B460D4BA3FB021397
:102C60005B09642101FB03F3D31ADB003233084A0A
:102C7000A2FB03235B0903F00702D7F8F4301B68BB
:102C800022449A6006E100BF001001400014014098
:102C90001F85EB51D7F8FC300022C7F8A030C7F8E9
:102CA000A420D7E9288942464B46911839625B41F6
:102CB0007B62D7E9082341465418494643EB010596
:102CC0004FF000024FF00003EB0043EA5473E200C0
:102CD00014461D464346E318C7F898304B4645EB6B
:102CE0000303C7F89C30D7F8F4305B680022C7F8BC
:102CF0009030C7F894204FF000024FF00003D7E95E
:102D0000244529468B00214643EA917321468A00D7
:102D1000D7E92601FDF7BCFA02460B46604BA3FB40
:102D200002235B091C01D7F8FC300022C7F8883069
:102D3000C7F88C20D7E9228942464B469118B961E1
:102D40005B41FB61D7E90623414651183961494689
:102D50004B417B614FF000024FF00003D7E904AB19
:102D60005946CB00514643EA51735146CA001046BA
:102D70001946034642469B18C7F880304B460A4620
:102D800042EB0303C7F88430D7F8F4305B680022C5
:102D9000BB67FA674FF000024FF00003D7E91E89C6
:102DA00049468B00414643EA917341468A00D7E980
:102DB0002001FDF76DFA02460B461146384BA3FB86
:102DC00001235B09642202FB03F3CB1A1B0132339C
:102DD000334AA2FB03235B0903F0F0031C44D7F83A
:102DE000FC3000223B677A67D7E91C8942464B4694
:102DF0009118B9605B41FB60D7E902234146511845
:102E0000396049464B417B604FF000024FF00003B0
:102E1000D7E900AB5946CB00514643EA51735146BE
:102E2000CA0010461946034642469B18BB664B46ED
:102E30000A4642EB0303FB66D7F8F4305B680022D6
:102E40003B667A664FF000024FF00003D7E918891D
:102E500049468B00414643EA917341468A00D7E9CF
:102E60001A01FDF715FA02460B460D4BA3FB0213A0
:102E70005B09642101FB03F3D31A1B013233084AB7
:102E8000A2FB03235B0903F00F02D7F8F4301B68A1
:102E900022449A6000BF07F58077BD46BDE8B08F39
:102EA0001F85EB510EB410B59DB01FAB029006907C
:102EB0006FF000410A48079104910A4953F8042B26
:102EC0000591002402A9006801931B9400F0A2F967
:102ED000029B1C701DB0BDE8104003B0704700BFDE
:102EE0000C0000200802FFFF02440346934200D179
:102EF000704703F8011BF9E7014B1868704700BFE2
:102F00000C00002070B50D4D0D4C641BA410002664
:102F1000A64209D10B4D0C4C00F064FC641BA410BC
:102F20000026A64205D170BD55F8043B98470136EE
:102F3000EEE755F8043B98470136F2E734390008CC
:102F400034390008343900083839000870477047B0
:102F50000A44914200F1FF3300D1704710B511F8D7
:102F6000014B03F8014F9142F9D110BD38B5054628
:102F7000002941D051F8043C0C1F002BB8BFE418C5
:102F800000F0E0F81D4A136833B963601460284606
:102F9000BDE8384000F0DCB8A34208D92068211809
:102FA0008B4201BF19685B6809182160EDE71A467A
:102FB0005B680BB1A342FAD911685018A0420BD13B
:102FC00020680144501883421160E0D118685B68A2
:102FD000536008441060DAE702D90C232B60D6E76F
:102FE000206821188B4204BF19685B68636004BFC6
:102FF000091821605460CAE738BD00BF6402002090
:1030000070B50F4E0C463168054611B900F0A4FBAF
:1030100030602146284600F09FFB431C03D14FF04F
:10302000FF34204670BDC41C24F00304A042F8D035
:10303000211A284600F090FB0130F2D1EFE700BFE3
:10304000600200202DE9F843CD1C25F0030508356A
:103050000C2D38BF0C25002D064601DBA94204D9F2
:103060000C2333600020BDE8F883DFF8D48000F043
:1030700069F8D8F800301C4644BB29463046FFF7B3
:10308000BFFF431C044658D1D8F800402746002F04
:1030900043D1002C4BD023683946304604EB03095A
:1030A00000F05AFB814542D121686D1A294630460D
:1030B000FFF7A6FF01303AD023682B442360D8F8ED
:1030C00000305A6862BBC8F800700FE02268521BDB
:1030D00020D40B2A17D96119A342256018BF596063
:1030E000636808BFC8F8001062514B60304600F0BA
:1030F0002FF804F10B00231D20F00700C21A1CBF9B
:103100001B1AA350AFE76268A3420CBFC8F80020A7
:103110005A60EBE723466468AEE73C467F68B6E753
:103120001A465B68A342FBD100235360DEE70C2301
:103130003360304600F00CF894E70560D6E700BF36
:10314000640200200148FFF701BF00BF5C020020BD
:103150000148FFF7FCBE00BF5C0200202DE9F047EC
:103160008E681F46BE420B6882460C4690462DD89C
:10317000B1F90C2012F4906F26D06569096905EB4E
:103180004505A3EB010905EBD5757B1C4B446D1080
:103190009D4238BF1D46530527D52946FFF752FFEC
:1031A000064660B321694A46FFF7D2FEA38923F49D
:1031B000906343F08003A381266165614E44A5EBD3
:1031C00009052660A5603E46BE4200D93E462068FD
:1031D0003246414600F0A6FAA3689B1BA360236811
:1031E000334423600020BDE8F0872A4600F0C4FA8B
:1031F00006460028E0D121695046FFF7B7FE0C23B0
:10320000CAF80030A38943F04003A3814FF0FF3098
:10321000E9E700002DE9F04F98468B891B069DB029
:1032200007460D46144610D50B6973B94021FFF7C8
:1032300009FF2860286130B90C233B604FF0FF3054
:103240001DB0BDE8F08F40236B610023099320235C
:103250008DF82930CDF80C803023DFF89C818DF873
:103260002A304FF0010923469A4613F8012B0AB180
:10327000252AF9D1BAEB040B0BD05B46224629462E
:103280003846FFF76BFF013000F0A780099A5A44D7
:1032900009929AF80030002B00F09F8000234FF035
:1032A000FF32CDE905230AF1010A049307938DF853
:1032B00053301A935446052214F8011B4E48FCF76C
:1032C00097FF049AD8B9D00644BF20238DF8533015
:1032D000110744BF2B238DF853309AF800302A2B66
:1032E00015D0079A544600204FF00A0C214611F8D9
:1032F000013B303B092B4BD9B0B1079214E0A0EB56
:10330000080309FA03F313430493A246D2E7039B8D
:10331000191D1B680391002BBBBF5B4242F00202E8
:1033200007930793B8BF049223782E2B0AD16378B2
:103330002A2B32D1039B1A1D1B68039243EAE373C5
:1033400002340593DFF8C0A0217803225046FCF731
:103350004FFF38B1049BA0EB0A0040228240134388
:103360000134049314F8011B24488DF82810062218
:10337000FCF73EFF002836D0214B1BBB039B0733D5
:1033800023F0070308330393099B334409936AE747
:103390000CFB02320C460120A8E700230134059300
:1033A00019464FF00A0C204610F8012B303A092A32
:1033B00003D9002BC6D00591C4E70CFB01210446BC
:1033C0000123F0E703AB00932A460E4B04A93846CD
:1033D000AFF30080421C0646D6D1AB895B063FF5B1
:1033E0002DAF09982CE703AB00932A46054B04A99F
:1033F000384600F079F8EDE7F8380008023900089F
:10340000000000005D310008FE3800082DE9F0479B
:10341000164698468A680B69DDF820909342B8BF3B
:103420001346336091F8432007460C460AB1013336
:1034300033602368990642BF3368023333602568DE
:1034400015F0060506D104F1190AE36832689B1AE3
:10345000AB4226DC94F843302268003B18BF0123BE
:1034600092062BD404F1430241463846C847013046
:103470001ED02368226903F00603042B02BFE5680F
:103480003368ED1AA3680CBF25EAE5750025934261
:10349000C4BF9B1AED1800261A34B5421AD1002079
:1034A00008E00123524641463846C847013003D15F
:1034B0004FF0FF30BDE8F0870135C6E7E1185A1C30
:1034C000302081F84300224494F8451082F84310DC
:1034D0000233C7E70123224641463846C847013038
:1034E000E6D00136D9E700002DE9FF470F7E0C9E9C
:1034F000782F914680460C469A4601F1430207D840
:10350000622F0AD8002F00F0D180582F00F0B88029
:1035100004F1420684F842703AE0A7F16303152BE8
:10352000F6D801A151F823F081350008953500083F
:103530001135000811350008113500081135000853
:1035400095350008113500081135000811350008BF
:103550001135000893360008BF3500084D360008C5
:103560001135000811350008B5360008113500087E
:10357000BF35000811350008113500085536000820
:1035800033681A1D1B68326004F1420684F8423029
:1035900001239CE033682068191D3160060601D5BF
:1035A0001D6803E04506FBD5B3F90050002D03DA92
:1035B0002D236D4284F8433058480A2311E02168D6
:1035C0003368080653F8045B02D4490648BFADB21D
:1035D0006F2F5248336014BF0A230823002184F858
:1035E00043106668A660002E05DB21682E4321F09B
:1035F000040121604BD01646B5FBF3F103FB1157D4
:10360000C75D06F8017D2F46BB420D46F4D9082B55
:103610000BD12368DF0708D5236961689942DEBFB3
:10362000302306F8013C06F1FF36921B2261CDF8EB
:1036300000A04B4603AA21464046FFF7E7FE0130B3
:103640004AD14FF0FF3004B0BDE8F087236843F063
:10365000200323603248782784F845702368316856
:103660001F0651F8045B02D45F0648BFADB231605B
:10367000D90744BF43F0200323601DB11023ADE7F9
:103680002648E9E7236823F020032360F6E716467F
:10369000BDE7336825686169181D30602E061B6818
:1036A00001D5196002E06806FBD51980002323616B
:1036B0001646BCE733681A1D32601E686268002136
:1036C0003046FCF795FD08B1801B6060636823619C
:1036D000002384F84330AAE723693246494640462E
:1036E000D0470130ADD023689B0713D4E068039B1B
:1036F0009842B8BF1846A6E70123324649464046DD
:10370000D04701309DD00135E36803995B1AAB4285
:10371000F2DCEBE7002504F11906F5E709390008AA
:103720001A390008884210B501EB020402D984421C
:10373000234607D8431EA14208D011F8012B03F8F5
:10374000012FF8E7024401468A4200D110BD13F868
:10375000014D02F8014DF7E738B5064D0023044648
:1037600008462B60FDF772FA431C02D12B6803B1A7
:10377000236038BD580200202DE9F0410746144669
:103780000D4621B9BDE8F0411146FFF75BBC2AB9EF
:10379000FFF7ECFB25462846BDE8F08100F01AF85B
:1037A0008442064602D8B4EB500FF4D8214638467E
:1037B000FFF748FC804608B94546ECE7B44222468C
:1037C000294628BF3246FFF7C3FB29463846FFF794
:1037D000CDFBF1E751F8043C181F002BBCBF0B5880
:1037E000C0187047F8B500BFF8BC08BC9E467047CB
:0C37F000F8B500BFF8BC08BC9E4670474E
:1037FC00496E74657272757063696F6E2072656361
:10380C00696269646120656E20504331330D0A0092
:10381C0053697374656D6120696E696369616C6964
:10382C007A61646F2E0D0A50726573696F6E652034
:10383C00656C2070756C7361646F7220706172615D
:10384C0020696E6963696172206C61207472616EAB
:10385C00736D6973696F6E204932432E2E2E0D0ADB
:10386C000000000050756C7361646F7220646574A5
:10387C0065637461646F2C20696E696369616E6441
:10388C006F207472616E736D6973696F6E2049324B
:10389C00432E2E2E0D0A0000496E6963696F204D70
:1038AC006173746572204932430D0A005458204FDD
:1038BC004B3A2025632025630D0A00004572726F78
:1038CC007220656E205458204932433A2025640DED
:1038DC000A000000000000000000000001020304C8
:1038EC00060708090000000001020304232D302BF9
:1038FC002000686C4C0065666745464700303132E5
:10390C00333435363738394142434445460030313B
:10391C00323334353637383961626364656600009A
:08392C00B4C8FF7F0100000098
:04393400C5010008C1
:04393800A1010008E1
:10393C000024F40010000000010000001000002022
:10394C00000000002001002088010020F001002070
:10395C00000000000000000000000000000000005B
:10396C00000000000000000000000000000000004B
:10397C00000000000000000000000000000000003B
:0C398C000000000000000000000000002F
:0400000508000CDD06
:00000001FF
